:020000040800F2
:10000000182600204902000851400008BD370008AA
:10001000813F000835160008E14700080000000095
:100020000000000000000000000000008101000846
:100030003916000800000000F90100083502000828
:1000400063020008630200086302000863020008FC
:1000500063020008630200083B1600086302000800
:1000600063020008630200086302000863020008DC
:1000700063020008630200086302000863020008CC
:1000800063020008630200086302000863020008BC
:1000900063020008630200086302000863020008AC
:1000A000630200086302000863020008630200089C
:1000B000630200086302000863020008630200088C
:1000C000630200086302000863020008630200087C
:1000D000630200086302000863020008630200086C
:1000E000630200086302000863020008DD430008A1
:1000F00063020008DFF81CD001F016F805F0F8FDE7
:100100000021034805F09CFE05F004FEFEE7000018
:10011000E8A700081826002080F309887047EFF34D
:1001200009807047684680F3098804480078C00752
:1001300014BF0220032080F314887047A8A700088A
:10014000DFF818C0EFF305831B0618BF6047EFF315
:100150001483DB0708BF604700DF70475F62000859
:10016000DFF818C0EFF305831B0618BF6047EFF3F5
:100170001483DB0708BF604700DF70474564000851
:10018000EFF30980816911F8021CF1B990E80F10B2
:10019000E047EFF3098C8CE80700144B93E8060066
:1001A00091420FD039B12CE9F00FC1F828C00CB43E
:1001B00006F078FC0CBC1A60D2F828C0BCE8F00F3E
:1001C0008CF309886FF0020E704710B5084A126868
:1001D000914209D8074C54F8214090E80F10A047ED
:1001E000EFF3098C8CE80F0010BD0000FC0000202C
:1001F000AC140008AC14000806F0EAFA0C4B93E8C3
:100200000600914210D0EFF3098C2CE9F00FC1F8F1
:1002100028C00CB406F046FC0CBC1A60D2F828C00A
:10022000BCE8F00F8CF309886FF0020E70470000F5
:10023000FC00002006F0FEFCE0E7000005F066FE92
:1002400006F0F8FCDAE70000064880470648004759
:10025000FEE7FEE7FEE7FEE7FEE7FEE7FEE7FEE776
:10026000FEE7FEE779430008F50000082DE9F05F9E
:100270000546002092469B46884606468146402415
:100280001BE0284641464746224600F062FD5346A1
:100290005A46C01A914110D311461846224600F022
:1002A00049FD2D1A67EB01084F4622460120002127
:1002B00000F040FD17EB00094E41201EA4F101049F
:1002C000DFDC484631462A464346BDE8F09F2DE92B
:1002D000F0410024061B254671F1000605DA0124D1
:1002E0000027D0EB070067EB0101161E73F1000633
:1002F00005DA0027D2EB0702012567EB0303FFF7BE
:10030000B5FF86460E4617469C46AC4204D00025F3
:10031000D0EB050E65EB010624B10020D2EB0007FF
:1003200060EB030C704631463A466346BDE8F08107
:1003300010B5431A934209D28318881803E010F8C5
:10034000011D03F8011D521EF9D210BD40EA010340
:100350009B0703D009E008C9121F08C0042AFAD27B
:1003600003E011F8013B00F8013B521EF9D210BD29
:10037000D2B201E000F8012B491EFBD270470022E7
:10038000F6E710B513460A4604461946FFF7F0FF94
:10039000204610BD30B505462A460B4612F8010B23
:1003A00013F8014B08B1A042F8D01CB1002802D0CC
:1003B0006D1CF1E7284630BD421C10F8011B0029D6
:1003C000FBD1801A704700000FB400B58DB010A9A2
:1003D00009900B9000914FF0FF300A9000200C9094
:1003E00005480690054807906A4609A80F9900F04D
:1003F000E7FC0DB05DF814FBDD0D0008FB0D0008F7
:100400002DE9FF5F1D464FF0FF3BD5E901469146C0
:100410005F464FF00008A9697F1C01988847296A48
:10042000824688470028F6D1BAF1FF3F0CD024F469
:10043000C064002E19DD600614D5BAF12B0F09D067
:10044000BAF12D0F0ED103E0584604B0BDE8F09F7D
:1004500044F48064A9697F1C01988847761E82460F
:10046000002E02DDBAF1300F03D0B9F1000F26D013
:1004700032E0A969761E44F400747F1C0198884715
:100480008246002E05DDBAF1780F06D0BAF1580F7A
:1004900003D0B9F1000F10D01EE0B9F1000F02D067
:1004A000B9F1100F18D1A969761E24F400747F1CCD
:1004B000019888478246102002E0082000E00A20C8
:1004C000814609E008FB0908A969761E44F4007416
:1004D0007F1C019888478246002E05DD494650461C
:1004E00000F059FC0028EDDAE96901988847A00579
:1004F00002D46FF00100A8E7E00725D1600613D50C
:10050000600502D5C8F1000000E0404629680A1DD8
:100510002A600968220501D5087015E0220701D577
:10052000088011E008600FE02868011D296000685C
:10053000210502D580F8008006E0210702D5A0F849
:10054000008001E0C0F8008038467EE72DE9FF5FBB
:10055000D2E901A74FF00008916999461446DDF8E9
:1005600038B0464601988847054659EA0B0005D041
:1005700009E0A169761C019888470546216A28464A
:1005800088470028F5D1681C03D05FEACA7005D0FF
:1005900015E04FF0FF3004B0BDE8F09F2068011D6A
:1005A0002160D0F800800AE05FEACA7001D108F843
:1005B000015BA169761C7F1E019888470546002FC4
:1005C0001ADD681C18D0B9F1000F0DD0E81705EB43
:1005D000D060421120F01F0059F822102A1A012081
:1005E00090400142E0D107E0BBF1000FDCD1216A6D
:1005F000284688470028D7D0E16901988847BBF191
:10060000000F07D1002E05DD5FEACA7002D100217C
:1006100088F80010A068B84203DDBBF1000F03D0DA
:1006200017B16FF00100B6E73046B4E72DE9FF4F90
:10063000087883B09946FF2805D0491C2D2804D09E
:100640000024002008E000200BE00124F9E700EB83
:10065000800003EB4000491C0B78FF2BF7D104B15D
:10066000404200230293147819461D462D2C01D0D8
:100670002B2C04D1521C2D2C13D000240294AA46FA
:100680001478FF2C0FD00A25A3FB057801FB058108
:100690004FF0000C03FB0C11521CE3194AEB010153
:1006A000EEE70124EAE7814453EA010002D019F59C
:1006B000C87F06DA03980021C0E9001107B0BDE841
:1006C000F08F0025AE4E2F46DFF8B882184600F0B6
:1006D000EEFCCDE90001B9F1000002DAC9F1000435
:1006E00000E004460023A74A1AEB030B42EB045A2E
:1006F00012E0E00707D02A4633463846414600F06C
:1007000021FC074688462A4633461046194600F023
:1007100019FC05460E466410002CEAD1DDE9000103
:10072000B9F1000F5A46534606DA00F014FA3A4679
:10073000434600F010FA05E000F004FC3A46434658
:1007400000F000FC029A0AB181F00041039AC2E96C
:100750000001B3E72DE9FF4F1F468DB0D7E90146F1
:100760004FF0FF382E2045464FF000090B90B96935
:100770006D1C0E988847396A824688470028F6D152
:10078000BAF1FF3F0AD024F4D064002E11DDBAF193
:100790002B0F08D0BAF12D0F0BD102E0404611B05B
:1007A0008DE744F48064B9696D1C0E9888478246D1
:1007B000761E6946600501D52D2000E02B208DF8BE
:1007C000000001F1010B0DF1200809E0B9696D1C71
:1007D0000E98884782460F9844F40074761E056090
:1007E000002E02DDBAF1300FF0D00B998A453ED1D0
:1007F00044F0800406E00F99681CA9F1010944F453
:1008000000740860B9696D1C761E0E988847824690
:100810003028F0D02BE00B998A4505D1200603D46F
:1008200044F08004761E18E0504604F024F908B322
:100830000DF11301761E44F400748B4508D2AAF121
:1008400030000BF8010B200607D5A9F1010003E0E9
:10085000200602D409F101008146A00502D50F99B6
:10086000681C0860B9696D1C0E9888478246002E86
:10087000D1DC53E0002E51DDBAF1650F02D0BAF1A0
:10088000450F4BD1A00549D5B9696D1C24F44074BE
:10089000761E0E9888478246002E0CDD2B2804D049
:1008A000BAF12D0F07D144F48074B9696D1C0E980C
:1008B00088478246761EE00501D52D2100E02B21D8
:1008C00008F8011BCDF82C8021E00DF12901761EDE
:1008D00044F4007488450CD2AAF1300010F0FF00F7
:1008E00088F8000002D10B99884509D908F1010860
:1008F00006E0E00501D5244801E042F20F70814690
:10090000B9696D1C0E98884782460F980560002EC5
:1009100004DD504604F0AFF80028D6D1F9690E98EE
:100920008847FF208BF8000088F800000020069020
:1009300007904B466A4608A906A8FFF777FEA00570
:1009400002D46FF001002AE714F0240F0AD0E00768
:1009500014D1DDE906123868031D3B600068C0E968
:1009600000120BE0DDE9060100F0B2F90146E007F4
:1009700004D13868021D3A600068016028460EE71D
:10098000000014400000F03FF1D8FFFF30B480EACF
:10099000010202F0004530F0004221F0004013D087
:1009A00090B1C30DD40DC2F31601C0F31600E41AC2
:1009B00041F4000140F400027D34914201D3641CF3
:1009C00000E04900002C02DA30BC002070474FF4F0
:1009D00000000023914201D3891A034340084FEAE3
:1009E0004101F7D151B1914202D14FF0004105E0F0
:1009F00002D24FF0010101E06FF0010103EBC4509E
:100A0000284430BC00F00ABA2DE9FE4F804681EA46
:100A10000300C00F0C46009021F0004123F0004578
:100A2000B8EB0200A94105D24046214690461C463B
:100A30000B46024623F00040104347D0270DC7F372
:100A40000A00C3F30A510290401A019040286BDA61
:100A5000C3F3130040F4801B0098924620B100239A
:100A6000D2EB030A63EB0B0B01985946C0F140022D
:100A7000504600F05FF906460D4650465946019A29
:100A800000F077F910EB08006141002487EA115269
:100A900084EAE7731A4340D0009A62B3019A012AAC
:100AA0004FEA075215DC001B61EB02014FF00042D8
:100AB00002EA0752CDE90042001C41F5801132469E
:100AC0002B4600F0F1F903B0BDE8F08F4046214617
:100AD000F9E7001B61EB0201001C41F580130018CF
:100AE0005B412018A2F5001747EB030140EAD570DF
:100AF000B6196D4111E06D084FEA360645EAC0753A
:100B00004FEA0752001B61EB0201001C41F5801106
:100B100049084FEA30000019514132462B4603B0D4
:100B2000BDE8F04F00F0B1B9009801224000002369
:100B3000D0EB020263EBE073009821464FEAE074C9
:100B4000B8EB000061EB0401E9E783F000435BE7E9
:100B500081F0004158E72DE9F04D81EA030404F0EB
:100B6000004B21F0004514464FF0000A23F00041ED
:100B700050EA050220D054EA01021DD0C5F30A57FD
:100B80000246C5F31303C1F31300C1F30A5640F440
:100B9000801543F48013A7EB0608101BD64608F215
:100BA000FD3873EB050002D308F1010801E092184B
:100BB0005B41B8F1000F03DA00200146BDE8F08D7B
:100BC00000204FF48011064684460EE0171B73EB9D
:100BD000050705D3121B63EB050306434CEA010C22
:100BE00049084FEA300092185B4150EA0107EDD105
:100BF00052EA030012D082EA040083EA05010843A6
:100C000005D0101BAB4106D20122002306E00022D2
:100C10004FF0004302E06FF0010253101AEB0600A0
:100C20004CEB085110EB0A0041EB0B01BDE8F04D15
:100C300000F02BB9C10F80EAE0700844CA07962380
:100C4000002100F0F4B896230022114600F0EFB81E
:100C500000F0004220F00040C10DC0F3160040F447
:100C600000007F2901DA00207047962903DCC1F1DA
:100C70009601C84001E096398840002AF4D04042ED
:100C8000704720F00040C10DC0F3160040F4000092
:100C90007F2901DA00207047962903DCC1F1960113
:100CA000C840704796398840704700F0004230F0E5
:100CB00000400AD0C10D01F56071C0F3160042EA90
:100CC0000151C20840071143704700200146704798
:100CD00001F0004330B421F0004150EA010206D097
:100CE0000A0DA2F56072C1F31301002A02DC30BCC8
:100CF00000207047440F44EAC104C100E01830BC32
:100D000000EBC25000F08AB830B50B460146002017
:100D10002022012409E021FA02F59D4205D303FABD
:100D200002F5491B04FA02F52844151EA2F101023E
:100D3000F1DC30BD202A04DB203A00FA02F1002069
:100D400070479140C2F1200320FA03F31943904009
:100D50007047202A04DB203A21FA02F00021704774
:100D600021FA02F3D040C2F1200291400843194613
:100D70007047202A06DBCB17203A41FA02F043EAFB
:100D8000E07306E041FA02F3D040C2F12002914044
:100D90000843194670473A2800D2303820F0200224
:100DA000412A01D3A2F13700884201D34FF0FF302E
:100DB00070470000026811441378016018467047BC
:100DC000D160044951610449116200211161114649
:100DD00000F0C2B9B50D00084D110008426842B1DB
:100DE000016811F8013B23B1521EC0E900121846F8
:100DF00070470121C160881E704742685AB1C368BC
:100E0000016843B983688B4205D0491E521CC0E972
:100E10000012002070474FF0FF3070470029A8BF34
:100E20007047401C490008BF20F00100704710B413
:100E3000B0FA80FC00FA0CF050EA010404BF10BCC8
:100E4000704749B1CCF1200421FA04F411FA0CF1F5
:100E500018BF012121430843A3EB0C01CB1D4FEA2E
:100E600000614FEA102042BF002010BC704700EB29
:100E7000C35010440029A4BF10BC7047401C490057
:100E800008BF20F0010010BC704710B5141E73F1AC
:100E9000000408DA401C41F1000192185B411A433A
:100EA00001D120F0010010BD2DE9F04D92469B4686
:100EB00011B1B1FA81F202E0B0FA80F2203290462C
:100EC000FFF738FF04460F4640EA0A0041EA0B01EB
:100ED00053465A46084313D0114653EA010019D02D
:100EE000C8F140025046FFF734FF05460E46504613
:100EF00059464246FFF71EFF084305D0012004E093
:100F000020463946BDE8F08D0020054346EAE076EC
:100F10002C4337430A986305E40AA0EB080000223B
:100F2000FD0A44EA47540A3002D500200146E9E7A9
:100F3000010510196941DDE9084500196941BDE85D
:100F4000F04DA2E72DE9FE4F81EA030404F00044CE
:100F500021F0004100944FF0000B23F0004350EAD1
:100F600001045ED052EA03045BD0C3F30A54C1F318
:100F70000A552C44A4F2F3340194A0FB0254C1F3AB
:100F8000130141F48011C3F3130343F4801301FBF5
:100F9000024400FB034E840A970A44EA815447EA5C
:100FA0008357A4FB076802958D0A05FB07854FEA66
:100FB000932C04FB0C542705029D4FEA065847EA80
:100FC0001637B5EB08056EEB070C870E920E47EA55
:100FD000811742EA8312A7FB0201B6EB0B0164EB17
:100FE00000042B0D43EA0C335E1844EB1C50DA4628
:100FF0005146E7FB0201C5F313044FEA0B3343EA02
:1010000014534FEA0432019C43EA0603A4F10C0492
:101010000294009CCDE900B4FFF746FF03B0BDE8A1
:10102000F08F00200146F9E72DE9FE4FC3F30A5780
:1010300001F000450024C1F30A56C3F31303C1F3C2
:10104000130143F4801312EB020AA64641F4801107
:10105000009543EB030CA7F1010B16E0B0EB0A007F
:1010600061EB0C01071E71F1000707DA4FF0000871
:10107000D0EB080085F0004568EB0101171A73EB0F
:101080000107EBD3761E001849415E45F6DA50EAB7
:10109000010209D0CDE900E5002213460296FFF7D0
:1010A00003FF03B0BDE8F08F20460099F9E70EB5C5
:1010B00040F2334202920022CDE900221346FFF7AC
:1010C000F3FE03B000BDC1F30A52C1F3130140F2B5
:1010D000FF3341F480119A4202DA00200146704742
:1010E00040F233439A42A2F2334202DC5242FFF70B
:1010F00030BEFFF71FBE000030B5041E71F10004C2
:1011000004DB4FF00044404264EB0101141E73F114
:10111000000405DB1C464FF00043524263EB04031E
:10112000994208BF904230BD064C074D06E0E0688A
:1011300040F0010394E8070098471034AC42F6D31E
:10114000FEF7DCFFCCA80008ECA80008C0B24FF402
:10115000F05100F097B900002DE9F34F8BB04FF03C
:10116000000801F10C000C464FF0010B46460DF152
:10117000080A01906269012101989047051E2DD04F
:10118000252D2CD0216A8847C0B1626901210198C0
:101190009047216A88470028F7D1411E626901986B
:1011A000904700E0761CA1690B988847216A884720
:1011B0000028F7D1E1690B988847DBE7A1690B9814
:1011C00088470746A84201D1761CD3E7E1690B980E
:1011D00088477F1C02D1B8F1000F6FD046E100278D
:1011E00062693D463946019890472A2804D16269D0
:1011F0000121019890470125DFF88492626901215D
:1012000001989047A0F130010A290AD24F45E5DC48
:1012100007EB870100EB4107303FDFD445F01005B5
:10122000ECE7E90601D46FF000476C280AD04C289F
:1012300014D0682815D06A280DD074281CD07A28BC
:101240001AD01DE062690121019890476C2802D0F4
:1012500045F0040514E045F002050DE045F02005D9
:101260000AE06269012101989047682802D045F0A0
:10127000080505E045F40065626901210198904781
:10128000C4E9015765283DD019DC58287AD00CDC18
:10129000452837D004DC252826D0412831D131E03B
:1012A00046282FD047282CD12CE05B2877D0612806
:1012B00028D063287CD0642823D15AE0D0E06F285E
:1012C00048D008DC66281DD067281BD0692821D0AB
:1012D0006E2816D127E0702845D0732868D075286D
:1012E00047D078280DD14DE0A1690B988847054675
:1012F00025283FF469AFE1690B9888476D1C3FF4DE
:101300006AAFB3E023466A466FF001000B99FFF71E
:1013100021FA9EE045F040006060A80723464FF0A8
:10132000000236D43EE0E8077FF447AF2068011D95
:1013300021600068290501D506701BE7290701D542
:10134000068017E7A90703D5F117C0E9006111E787
:1013500006600FE745F040006060A80723464FF0A5
:10136000080216D41EE040F60E0125EA0100606076
:1013700016E045F040006060A80723464FF00A02DF
:1013800007D40FE045F040006060A80708D5234669
:1013900010226FF001000B99AFF3008059E007E0D5
:1013A000234610226FF001000B99FFF729F850E057
:1013B0004FF000094F464B46632802D05B2806D009
:1013C00040E0E80601D40120A06001273AE062690C
:1013D0000121019890475E2805D14FF0010962690B
:1013E000494601989047216939B900210A46534678
:1013F00043F82120491C0829FADBB0B3216969B9F7
:10140000C11700EBD16253110AEB830122F01F02D6
:10141000821A01200B68904003430B60626901212E
:10142000019890475D28E8D1B9F1000F09D000205C
:10143000514651F82020D24341F82020401C082872
:10144000F7DB02AB224600976FF001000B99FFF724
:101450007DF800280CDA401C08D1BBF1000F05D044
:101460004FF0FF300DB0BDE8F08FFFE74046F9E7E1
:10147000E90701D108F1010806444FF0000B79E6B5
:10148000CCCCCC0C7F2801D9002208E0064A02EB24
:101490005002C007127800D1120902F00F02012099
:1014A0009040084070470000F8A7000800000000C6
:1014B00010B5144803F01FFF762012492C39888498
:1014C00011488862002408E04FF4FA7004F004FC2C
:1014D000641C062C01D1002010BD0A49A1F12C008A
:1014E00003F077FE0028EFD006482C3890F8320041
:1014F000602801D1012000E000200449087001208B
:10150000EAE700008C090020F0070020AD00002071
:101510007FE04FF0FF313F48006804F085FCFFF7A3
:10152000C7FF98B104F0F4FC10BB3B483B49096885
:10153000C8603A490968086138490968486138480B
:1015400000F06AFD364800F085FD11E0324833496D
:101550000968C8603149096808613049096848610B
:101560002F4800F059FD2E4800F074FDFFF7A0FF52
:101570002848006804F04CFC4FF6FF7129480068C9
:1015800004F052FC28480068401C274908600846BF
:101590000068052809D14FF6FF712448006804F05F
:1015A00043FC2348006804F033FC1E48006804F044
:1015B0002FFC4FF6FF711E48006804F035FC1C48F4
:1015C000006804F025FC4FF6FF711648006804F02F
:1015D0002BFC15480068401E134908600846006847
:1015E00048B94FF6FF711248006804F01DFC0F481F
:1015F000006804F00DFC0B48006804F009FC4FF68D
:10160000FF710A48006804F00FFC0848006804F005
:10161000FFFB7EE74C000020804FC3470400002002
:10162000F007002038000020440000202C0000209B
:101630002000002000BFFEE7704710B5012000F039
:10164000E9FB10BD7047000070B500F0DFFC0446F8
:1016500025461DE000F0DAFC1349C1F804020846F3
:1016600090F80202B1F800120F4A50541046B0F838
:101670000002401C1146A1F800024FF47A730122C7
:1016800001F20221094801F0BFFF00F0BFFC05464E
:101690000548B0F80002B0F5FF7F04D2281B41F2E4
:1016A00070718842D6DB70BDA00100208008002048
:1016B00010B58EB000F0AAFC3F49D1F80412401AD0
:1016C00032286DD93C48B0F80002002868DD3BA103
:1016D0003948FEF75FFE0446002C57D048213948B0
:1016E000FEF74DFE374944310A1F8B1FA1F1100050
:1016F000CDE90B320D910A90011F0A1F8B1F0B3889
:10170000CDE9073209910690411E103A131F213886
:10171000CDE9033205910290011F801F431E821EF6
:10172000CDE9000128492046FEF74EFE224890F8F8
:10173000200218B92D21204880F820121E4890F868
:10174000300218B92D211C4880F830121A4890F840
:10175000440218B92D21184880F84412164890F810
:101760003C0218B92D21144880F83C121249D1F8D6
:10177000100203F071FF134AC2E904010E49D1F8C7
:10178000240203F069FF0F4AC2E908014FF4007117
:101790000948FEF7F4FD00200749A1F8000200BF48
:1017A0004FF47A7301220749891F084801F02CFF82
:1017B000FFF74AFF0EB010BDA0010020244750479C
:1017C00047412C00A803002038A80008800800200A
:1017D0005FE04FF0FF312F48006804F025FB04F074
:1017E000FFF8012004F006F9FFF762FF04F0F8F8B3
:1017F0002848006804F00CFB4FF6FF71264800688B
:1018000004F012FB25480068401C24490860084683
:101810000068052809D14FF6FF712148006804F0DF
:1018200003FB2048006804F0F3FA1B48006804F04A
:10183000EFFA4FF6FF711B48006804F0F5FA1948FB
:10184000006804F0E5FA4FF6FF711348006804F0F1
:10185000EBFA12480068401E10490860084600680C
:1018600048B94FF6FF710F48006804F0DDFA0C48E4
:10187000006804F0CDFA0848006804F0C9FA4FF691
:10188000FF710748006804F0CFFA0548006804F0CB
:10189000BFFA9EE74C0000203800002044000020E2
:1018A0002C0000202000002038B502460023002034
:1018B000009000BF92F84800012801D1022038BDF5
:1018C000012082F8480000BF4868072812D210683B
:1018D000006C0C79641E04EB84051F24AC40A0430B
:1018E0000D796D1E05EB85050C68AC40204314682E
:1018F000206453E048680D2812D21068C06B0C7940
:10190000E41F04EB84051F24AC40A0430D79ED1FB8
:1019100005EB85050C68AC4020431468E0633DE0AE
:101920004868132812D21068806B0C790D3C04EBC8
:1019300084051F24AC40A0430D790D3D05EB8505C2
:101940000C68AC4020431468A06327E0486819285D
:1019500012D21068406B0C79133C04EB84051F24F1
:10196000AC40A0430D79133D05EB85050C68AC40F8
:1019700020431468606311E01068006B0C79193C17
:1019800004EB84051F24AC40A0430D79193D05EB01
:1019900085050C68AC4020431468206308680A2859
:1019A00010D2106840690C7804EB44050724AC4061
:1019B000A0430D7805EB45058C68AC4020431468C6
:1019C00060612CE00868142812D2106800690C7855
:1019D0000A3C04EB44050724AC40A0430D780A3DC3
:1019E00005EB45058C68AC4020431468206116E087
:1019F00008681A2812D81068C0680C78143C04EBE8
:101A000044050724AC40A0430D78143D05EB450583
:101A10008C68AC4020431468E06000E000BF0868B8
:101A2000102802D0086811281DD11248006800F45F
:101A30000000C0B90F48006840F400000D4C206061
:101A4000086810280FD10C4800680C4CB0FBF4F06B
:101A500000EB80004000009002E00098401E0090E3
:101A600000980028F9D100BF002082F8480000BF8C
:101A7000184624E7042701406400002040420F007C
:101A8000F8B504460027002600250CB90120F8BD52
:101A9000206918B194F82C0000B100BF606B1028C9
:101AA00000D000BFE06CA0B90020206584F8480099
:101AB00000BF6448006840F00100624908600846C1
:101AC000006800F00100009000BF00BF204600F059
:101AD000C3F8E06C00F01000002878D1E06C20F42E
:101AE000885040F00200E0645748006820F440301D
:101AF00061680843544908606169E068084394F8E4
:101B00003C104FF4007292FAA2F2B2FA82F29140C3
:101B10000843216A084394F82410022292FAA2F2A0
:101B2000B2FA82F2914008430543606B102803D05B
:101B3000D4E90D010843054320680068C0F3801014
:101B4000A0BBA0690543E169A06808432169B1F51C
:101B5000807F02D02169012902D14FF4807100E019
:101B600000210843064394F82C00012817D194F86B
:101B7000240060B9206B401E4FF4604191FAA1F13E
:101B8000B1FA81F1884040F40060064307E0E06C60
:101B900040F02000E064206D40F0010020652068E6
:101BA00040682A49084030432168486020688068BE
:101BB000274908402843216888602069B0F5807F64
:101BC00002D02069012803D14FF4807001E035E094
:101BD0000020B0F5807F10D12068006B20F0F871F4
:101BE000A06A401E4FF0F87292FAA2F2B2FA82F2A4
:101BF000904001432068016305E02068006B20F0FD
:101C0000F870216808632068806812490840A8427B
:101C100008D100202065E06C20F0020040F00100B7
:101C2000E0640CE0E06C20F0020040F01000E064A2
:101C3000206D40F001002065012700E001273846B3
:101C400025E700002038024004270140FF16FCFC75
:101C50008DF1FFC0FEFF80BF10B586B00446142191
:101C600001A8FEF78CFB16492068884225D100BFE9
:101C70001448006840F40070124908600846006883
:101C800000F40070009000BF00BF00BF081F006894
:101C900040F00200091F08600846006800F00200DA
:101CA000009000BF00BF022001900320029000209E
:101CB000039001A9044800F0BBF806B010BD000075
:101CC000002401402038024000040240F0B50B46D9
:101CD00000210022002476E001258D4005EA030260
:101CE000002A6FD03A4D8E0855F826408D072E0FEA
:101CF0000F25B5402C40374DA84201D1002514E0F6
:101D0000354DA84201D101250FE0344DA84201D143
:101D100002250AE0324DA84201D1032505E0314DEC
:101D2000A84201D1042500E005258E07360FB540F5
:101D3000A54221D18D072E0F0F2505FA06F4244D5B
:101D40008E0855F82650A543214E8F0846F8275097
:101D5000254D2D689543244E3560351D2D689543DE
:101D6000361D3560351D2D689543361D3560351D92
:101D70002D689543361D356005684F000326BE402B
:101D8000B5430560CE0800F1200555F826504E07F2
:101D9000F70E0F26BE40B543CF0800F1200646F8E7
:101DA000275085684F000326BE40B54385604668CE
:101DB00001258D40AE434660C5684F000326BE40F6
:101DC000B543C560491C23FA01F5002D84D1F0BD4F
:101DD00008000140000002400004024000080240E8
:101DE000000C0240001002400004014001280AD10A
:101DF00005490978491C044A11700121034A1170F0
:101E00000021034A11707047C0000020C10000206B
:101E1000C200002010B5044604480068204020B1EC
:101E2000024804602046FFF7E1FF10BD14040140A2
:101E300078B50346002200240020CAE0012696401F
:101E40000D6805EA0604002C71D04D68022D02D001
:101E50004D68122D13D1D60803F1200555F8260040
:101E60005507EE0E0F25B540A8435607F60E0D692F
:101E7000B5402843D60803F1200545F82600186828
:101E800056000325B540A8430D7905F0030556001B
:101E9000B540284318604D68012D08D04D68022DCB
:101EA00005D04D68112D02D04D68122D13D19868C0
:101EB00056000325B540A8435600CD68B5402843D9
:101EC0009860586801259540A8430D79C5F3001521
:101ED000954028435860D86856000325B540A8436C
:101EE00056008D68B5402843D8604D6805F0805590
:101EF000B5F1805F6CD100BF394D2D6845F001050B
:101F0000374E356035462D6805F00105009500BF58
:101F100000BF344D960855F8260095072E0F0F2563
:101F2000B540A843304DAB4202D1002515E04FE04B
:101F30002E4DAB4201D101250FE02D4DAB4201D119
:101F400002250AE02B4DAB4201D1032505E02A4DC5
:101F5000AB4201D1042500E005259607360FB540B8
:101F60002843204D960845F82600244D2868A043B4
:101F70004D6805F48035B5F5803F00D120431F4DF5
:101F800028602D1D2868A0434D6805F40035B5F57F
:101F9000003F00D12043194D2D1D28602D1D2868BC
:101FA000A0434D6805F48015B5F5801F00D120438E
:101FB000124D083528602D1D2868A0434D6805F492
:101FC0000015B5F5001F00D120430C4D0C352860DD
:101FD000521C0D68D540002D7FF430AF78BD000055
:101FE0002038024008000140000002400004024086
:101FF00000080240000C02400010024000040140B2
:102000000AB1816101E00B048361704701480068F7
:10201000704700009000002010B504460CB9012064
:1020200010BD242084F83D002068006820F00100E5
:1020300021680860204600F015FB0020206484F829
:102040003D00206384F83E0000BF84F83C0000BFE0
:1020500000BFE5E770B504460CB9012070BD94F8E7
:102060003D0028B9002084F83C00204600F012FB17
:10207000242084F83D002068006820F001002168D9
:10208000086000F035FD05465C496068884206D866
:102090005B48854201D2012007E0002005E0594855
:1020A000854201D2012000E00020012800D1D5E7BF
:1020B0005548B5FBF0F62068406820F03F003043FB
:1020C000216848604D496068884201D8701C07E06B
:1020D0004FF4967070434FF47A71B0FBF1F0401CEE
:1020E0002168096A21F03F010843216808624349D9
:1020F0006068884214D8681E61684900B0FBF1F03E
:10210000401CC0F30B00042801D204203DE0681EEF
:1021100061684900B0FBF1F0401CC0F30B0034E0F3
:10212000A06838B9681E616801EB4101B0FBF1F0AD
:10213000401C0AE0681E616801EBC10202EB01115C
:10214000B0FBF1F0401C40F48040C0F30B0008B934
:1021500001201AE0A06848B9681E616801EB4101DE
:10216000B0FBF1F0401CC0F30B000CE0681E61688E
:1021700001EBC10202EB0111B0FBF1F0401CC0F316
:102180000B0040F4804040F400402168C9694CF6DF
:10219000FF72914308432168C861D4E907010843ED
:1021A0002168096821F0C001084321680860D4E96A
:1021B000031008432168896848F2FF3291430843BD
:1021C00021688860D4E9050108432168C96821F0C5
:1021D000FF0108432168C8602068006840F00100E2
:1021E0002168086000202064202084F83D00002041
:1021F000206384F83E0000BF30E70000A0860100A5
:1022000080841E0000093D0040420F002DE9FC5F64
:1022100004460F4690469946DDE90CAB0E9EFFF74B
:10222000F5FE054694F83D00202870D119230122BF
:10223000B0492046009501F013FC10B10220BDE822
:10224000FC9F00BF94F83C00012801D10220F6E772
:10225000012084F83C0000BF2068006800F0010005
:1022600028B92068006840F00100216808602068F3
:10227000006820F4006021680860222084F83D0096
:10228000402084F83E0000202064C4F824A0A4F874
:102290002AB0608D20859848E0624B464246394618
:1022A0002046CDE9006501F0ABFA08B10120C6E790
:1022B000208D88B900BF00200190206840690190FE
:1022C00020688069019000BF00BF2068006840F46A
:1022D00000702168086040E0208D012818D1206836
:1022E000006820F480602168086000BF0020019031
:1022F00020684069019020688069019000BF00BF9C
:102300002068006840F400702168086025E0EFE074
:10231000208D022816D12068006820F48060216892
:1023200008602068006840F400602168086000BF11
:102330000020019020684069019020688069019028
:1023400000BF0AE000BF00200190206840690190B2
:1023500020688069019000BF00BFBAE0208D03288B
:102360007ED8208D012815D12A463146204601F01D
:1023700020FC08B1012062E720680069616A0870EA
:10238000606A401C6062208D401E2085608D401E6A
:1023900060859EE0208D02282AD1334600225749CD
:1023A0002046009501F05CFB08B1012047E720685A
:1023B000006840F400702168086020680069616A64
:1023C0000870606A401C6062208D401E2085608D10
:1023D000401E608520680069616A0870606A401C60
:1023E0006062208D401E2085608D401E608570E0FB
:1023F0003346002241492046009501F031FB08B1E7
:1024000001201CE72068006820F4806021680860D3
:1024100020680069616A0870606A401C6062208DF3
:10242000401E2085608D401E608533460022334962
:102430002046009501F014FB08B10120FFE620685A
:10244000006840F400702168086020680069616AD3
:102450000870606A401C6062208D401E208500E08C
:1024600010E0608D401E608520680069616A087018
:10247000606A401C6062208D401E2085608D401E79
:10248000608526E02A463146204601F092FB08B1DD
:102490000120D4E620680069616A0870606A401C07
:1024A0006062208D401E2085608D401E6085206802
:1024B0004069C0F3800060B120680069616A0870FB
:1024C000606A401C6062208D401E2085608D401E29
:1024D0006085208D00287FF441AF202084F83D00E6
:1024E000002084F83E0000BF84F83C0000BFA6E650
:1024F0000220A4E6020010000000FFFF040001001B
:102500002DE9FC5F04460F4690469946DDE90CAB89
:102510000E9EFFF77BFD054694F83D0020287DD1F7
:10252000192301224D492046009501F099FA10B176
:102530000220BDE8FC9F00BF94F83C00012801D1B7
:102540000220F6E7012084F83C0000BF2068006804
:1025500000F0010028B92068006840F001002168FF
:1025600008602068006820F400602168086021206D
:1025700084F83D00402084F83E0000202064C4F828
:1025800024A0A4F82AB0608D20853548E0624B462F
:10259000424639462046CDE9006501F0CDF908B143
:1025A0000120C6E731E02A463146204601F041FBD2
:1025B00050B1206C042805D12068006840F40070F8
:1025C000216808600120B4E7606A0078216808612A
:1025D000606A401C6062208D401E2085608D401E18
:1025E000608520684069C0F3800070B1208D60B1C3
:1025F000606A007821680861606A401C6062208D12
:10260000401E2085608D401E6085208D0028CAD127
:102610002A463146204601F0F5F900E01CE050B1B1
:10262000206C042805D12068006840F400702168FF
:10263000086001207DE72068006840F40070216890
:102640000860202084F83D00002084F83E0000BF90
:1026500084F83C0000BF6CE702206AE7020010002B
:102660000000FFFF10B5044607492068884209D1E1
:102670000648006820F4001004490860C02104489E
:10268000FFF724FB10BD0000005400402438024036
:102690000004024010B586B00446142101A8FDF7DD
:1026A0006EFE1949206888422BD100BF1748006888
:1026B00040F00200154908600846006800F002007A
:1026C000009000BF00BFC0200190122002900120A6
:1026D0000390032004900420059001A90C48FFF703
:1026E000A7FB00BF09480830006840F40010074904
:1026F000083108600846006800F40010009000BF30
:1027000000BF06B010BD0000005400401C3802405D
:10271000000402400348006803490968084401496D
:1027200008607047900000209800002010B5002439
:10273000032000F0B3F8002000F008F808B10124ED
:1027400001E000F02FF8204610BD000070B50446EF
:10275000002511480068D8B10F4800684FF47A711D
:10276000B1FBF0F00D490968B1FBF0F6304600F01E
:1027700005FD58B9102C07D200222146501E00F04A
:102780004FF80748046004E0012502E0012500E05D
:102790000125284670BD000098000020640000203C
:1027A0009400002008B500BF1448006840F00040C5
:1027B000124908600846006800F00040009000BF21
:1027C00000BF00BF081F006840F00100091F08603B
:1027D0000846006800F00100009000BF00BF00BF85
:1027E000081D006840F08050091D08600846006818
:1027F00000F08050009000BF00BF08BD24380240A8
:1028000001460846002809DB00F01F0301229A4018
:1028100043099B0003F1E023C3F8002100BF704788
:102820002DE9F05F80460D461646002702F006F8B7
:10283000074639462A46334601F00700C0F1070A29
:10284000BAF1040F02D94FF0040A01E0C0F1070AFF
:10285000D14600F1040ABAF1070F02D24FF0000A84
:1028600001E0A0F1030AD4464FF0010A0AFA09FA7E
:10287000AAF1010A0AEA020A0AFA0CFA4FF0010B5D
:102880000BFA0CFBABF1010B0BEA030B4AEA0B044E
:102890002146404601F0DAFFBDE8F09F00BF00F09E
:1028A0000702064B19684FF6FF031940044B0B4310
:1028B00043EA0221014B196000BF70470CED00E0B4
:1028C0000000FA052DE9F04104460D4614B9012037
:1028D000BDE8F0817E48006800F00100A84218D2EF
:1028E00000BF012D05D17A48006840F00400784906
:1028F00008607748006820F00100284374490860A8
:1029000000BF0846006800F00100A84201D0012085
:10291000DEE7207800F00200022807D16D48006849
:1029200020F0F000A16808436A490860207800F0B0
:10293000010000287FD06068022807D16548083868
:10294000006800F40030F8B90120C1E7606803288E
:1029500007D160480838006800F00070A0B9012075
:10296000B6E76068012807D15A480838006800F0C7
:10297000020048B90120ABE756480838006800F467
:10298000007008B90120A3E75248006820F0030056
:10299000616808434F490860FFF738FB06466068E6
:1029A000022810D108E0FFF731FB801B41F288318B
:1029B000884201D903208BE74648006800F00C00EC
:1029C0000828F0D137E06068032810D108E0FFF74D
:1029D0001DFB801B41F28831884201D9032077E733
:1029E0003C48006800F00C000C28F0D123E060683F
:1029F000012810D108E0FFF709FB801B41F2883164
:102A0000884201D9032063E73248006800F00C00D7
:102A10000428F0D10FE008E0FFF7F8FA801B41F23C
:102A20008831884201D9032052E72A48006800F023
:102A30000C000028F0D12648006800F00100A842F0
:102A400018D900BF012D05D12148006840F00400CD
:102A50001F4908601E48006820F0010028431C49F7
:102A6000086000BF0846006800F00100A84201D0DD
:102A700001202DE7207800F00400042807D1154834
:102A8000006820F4E060E16808431249086020789B
:102A900000F00800082808D10E48006820F46050B3
:102AA000216940EAC1000B49086000F041F809497A
:102AB0000968C1F30311084A515CC840074908601E
:102AC00007480068FFF742FE0746384600E7000067
:102AD000003C024008380240717900086400002080
:102AE0009400002001480068704700006400002046
:102AF00000B5FFF7F7FF04490968C1F30221034A53
:102B0000515CC84000BD00000838024081790008CF
:102B100000B5FFF7E7FF04490968C1F3C221034A82
:102B2000515CC84000BD00000838024081790008AF
:102B3000F0B51A4E316801F00C0616B3042E04D01D
:102B4000082E04D00C2E1BD103E0154823E01548B5
:102B500021E0154EC1F38347F25DC1F38156731C2A
:102B60000E4E366806F4803626B10E4E5643B6FB3E
:102B7000F3F403E00A4E5643B6FBF3F420460AE0B2
:102B800000BF064E361F3668C6F342356E1C01275D
:102B9000B740F80300BF00BFF0BD00000838024096
:102BA0000024F40000127A00687900082DE9F84347
:102BB000044614B90120BDE8F883FE48006800F01F
:102BC0000C06FC48006800F48037207800F0010013
:102BD000002875D0082E04D00C2E0ED1B7F5803FFA
:102BE0000BD1F4480838006800F40030002867D0A2
:102BF0006068002864D10120DDE700BF606801281B
:102C000008D1EC480838006840F48030E9490839B8
:102C100008602DE0606868B9E6480838006820F46C
:102C20008030E449083908600846006820F48020B4
:102C300008601DE0606805280DD1DE48083800688E
:102C400040F48020DB49083908600846006840F4F9
:102C5000803008600CE0D7480838006820F48030E5
:102C6000D449083908600846006820F480200860CC
:102C700000BF606890B1FFF7C9F9054606E0FFF7AD
:102C8000C5F9401B642801D9032094E7C9480838D6
:102C9000006800F400300028F1D011E0FFF7B6F929
:102CA000054606E0FFF7B2F9401B642801D903206E
:102CB00081E7C0480838006800F400300028F1D1EE
:102CC000207800F00200022853D1042E02D00C2EEE
:102CD00017D1B7B9B7480838006800F0020020B132
:102CE000E068012801D0012065E7B248001F0068B4
:102CF00020F4F850216940EA0120AE49091F08601C
:102D000037E0E06800B30120AB490860FFF77EF9C7
:102D1000054606E0FFF77AF9401B022801D9032097
:102D200049E7A4480838006800F002000028F1D004
:102D3000A048001F006820F4F850216940EA0120F3
:102D40009C49091F086014E000209B490860FFF7B8
:102D50005DF9054606E0FFF759F9401B022801D945
:102D6000032028E793480838006800F00200002894
:102D7000F1D1207800F01000102871D1F6BB8D48F9
:102D80000838006800F4007018B1A06908B9012083
:102D900011E78849091F206A096801F460418842E7
:102DA00019D9206A01F060FA08B1012003E78148CF
:102DB000001F006820F46040216A08437D49091F14
:102DC0000860217F7B48001F006861F31F6079491C
:102DD000091F08601AE07748001F006820F460406F
:102DE000216A08437349091F0860217F7148001F49
:102DF000006861F31F606F49091F00E020E0086070
:102E0000206A01F031FA08B10120D4E60121206ADC
:102E100001EB503101208840C00366490968C1F3C5
:102E20000311664A515CC8406549086065480068FE
:102E3000FFF78CFC8046B8F1000F42D04046BAE65E
:102E4000A06948B301205C490862FFF7DFF8054636
:102E500007E0FFF7DBF8401B022802D90320AAE6AF
:102E60002FE054480838006800F400700028F0D0C3
:102E70005048001F006820F46040216A08434D4913
:102E8000091F0860217F4B48001F006861F31F6025
:102E90004849091F086014E0002047490862FFF70D
:102EA000B5F8054606E0FFF7B1F8401B022801D946
:102EB000032080E63F480838006800F400700028CE
:102EC000F1D1207800F0080008282CD16069A8B161
:102ED00001203D490860FFF799F8054606E0FFF735
:102EE00095F8401B022801D9032064E631482C30B4
:102EF000006800F002000028F1D014E00020324900
:102F00000860FFF783F8054606E0FFF77FF8401BEF
:102F1000022801D903204EE626482C30006800F034
:102F200002000028F1D1207800F0040004286ED1BE
:102F30004FF000091F481C30006800F0805088B92D
:102F400000BF1C481C30006840F0805019491C31FB
:102F500008600846006800F08050009000BF00BF85
:102F60004FF001091948006800F48070B0B91748A3
:102F7000006840F4807015490860FFF747F805467F
:102F800006E0FFF743F8401B642801D9032012E64E
:102F90000E48006800F480700028F2D000BFA068DE
:102FA000012817D103482C30006840F48070014993
:102FB0002C310DE0083802400000474271790008CA
:102FC000640000209400002080064742007000400A
:102FD000086028E0A06858B96648006820F480704E
:102FE000644908600846006820F4806008601AE0C0
:102FF000A06805280CD15F48006840F480605D49F6
:1030000008600846006840F4807008600BE040E00B
:103010005848006820F480705649086008460068E7
:1030200020F48060086000BFA06898B1FEF7EEFF52
:10303000054608E0FEF7EAFF401B41F2883188426E
:1030400001D90320B7E54B48006800F40070002860
:10305000F0D012E0FEF7DAFF054608E0FEF7D6FFF3
:10306000401B41F28831884201D90320A3E5414841
:10307000006800F400700028F0D1B9F1010F07D109
:103080003C481038006820F080503A4910390860F8
:1030900000BF606AA8B30C2E52D0606A022839D1F2
:1030A000002035490866FEF7B1FF054606E0FEF749
:1030B000ADFF401B022801D903207CE52D483438A0
:1030C000006800F000700028F1D1D4E90A0108433B
:1030D000216B084327492C39096821F47D010843F5
:1030E00024492C390860012023490866FEF78EFF29
:1030F000054607E0FEF78AFF401B022802D903209D
:1031000059E535E01B483438006800F000700028AD
:10311000F0D02DE0002018490866FEF777FF05463D
:1031200006E0FEF773FF401B022801D9032042E5A9
:1031300010483438006800F000700028F1D117E022
:10314000606A012800D136E50A482C38076807F480
:103150008031A06A814209D107F47011E06A81428E
:1031600004D107F44001206B814201D0012022E507
:10317000002020E5343802400000474270B5044684
:103180002546681EB0F1807F01D301200FE0681E44
:103190004FF0E02148610F214FF0FF3001F056FB66
:1031A00000204FF0E021886107200861002070BDF9
:1031B00010B5024600BF92F83800012801D1022064
:1031C00010BD012082F8380000BF022082F83900CB
:1031D000106843681068846823F07003086803432C
:1031E00024F08004486804431068436010688460D9
:1031F000012082F8390000BF002082F8380000BFAB
:1032000000BFDDE710B504460CB9012010BD94F8ED
:10321000390028B9002084F83800204600F00CF866
:10322000022084F83900211D206801F0DFF8012018
:1032300084F839000020E9E738B504460D492068D4
:10324000884215D100BF0C48006840F010000A49C0
:1032500008600846006800F01000009000BF00BF42
:10326000002211462B20FFF7DBFA2B20FFF7C8FACC
:1032700038BD0000001000402438024001460868B4
:10328000C06840F001000B68D8600868806800F0F2
:103290000702062A05D00868006840F001000B68A4
:1032A000186000207047704710B504462068006918
:1032B000C0F34000D8B12068C068C0F34000B0B18E
:1032C0006FF0020021680861012020762068806983
:1032D00000F0030018B12046FFF7E5FF05E02046A7
:1032E00000F08BF8204600F089F800202076206856
:1032F0000069C0F38000D8B12068C068C0F38000C6
:10330000B0B16FF0040021680861022020762068C7
:10331000806900F4407018B12046FFF7C4FF05E053
:10332000204600F06AF8204600F068F80020207679
:1033300020680069C0F3C000D8B12068C068C0F33D
:10334000C000B0B16FF00800216808610420207649
:103350002068C06900F0030018B12046FFF7A3FF02
:1033600005E0204600F049F8204600F047F800202C
:10337000207620680069C0F30010D8B12068C068CA
:10338000C0F30010B0B16FF0100021680861082090
:1033900020762068C06900F4407018B12046FFF71D
:1033A00082FF05E0204600F028F8204600F026F8CD
:1033B000002020762068006900F0010058B12068E4
:1033C000C06800F0010030B16FF0010021680861B1
:1033D000204600F015F820680069C0F3801058B14D
:1033E0002068C068C0F3801030B16FF040002168E1
:1033F0000861204600F022F810BD704770470000B9
:1034000010B504460B4920680968884210D10A4863
:1034100000684EF66021884203D10020064908600A
:1034200004E005480068401C03490860FFF772F992
:1034300010BD0000440800209C000020704710B51B
:1034400004460CB9012010BDA06900B100E000BF26
:1034500094F8390028B9002084F83800204600F09C
:1034600027F8242084F839002068C06820F4005030
:103470002168C860204600F0F5FF2068006920F44C
:103480009040216808612068406920F02A00216886
:1034900048612068C06840F400502168C86000207E
:1034A000E063202084F8390084F83A000020CAE75D
:1034B00010B586B00446142101A8FCF760FF4C4902
:1034C000206888422BD100BF4A48006840F4804001
:1034D000484908600846006800F48040009000BF3A
:1034E00000BF00BF081F006840F00100091F08600E
:1034F0000846006800F00100009000BF00BF4FF4D4
:10350000C0600190022002900020039003200490EC
:103510000720059001A93848FEF78AFC65E0374985
:10352000206888422ED100BF3248001D006840F458
:1035300000303049091D08600846006800F400307A
:10354000009000BF00BF00BF2A48001F006840F085
:1035500001002849091F08600846006800F00100C2
:10356000009000BF00BF0C200190022002900020BC
:103570000390032004900720059001A91E48FEF740
:1035800057FC32E01E49206888422ED100BF1948FE
:10359000001D006840F480201649091D0860084697
:1035A000006800F48020009000BF00BF00BF1148F9
:1035B000001F006840F002000E49091F086008461D
:1035C000006800F00200009000BF00BF4FF44060B0
:1035D0000190022002900020039003200490072015
:1035E000059001A90748FEF723FC06B010BD0000B6
:1035F00000380140203802400000024000440040F2
:1036000000480040000402402DE9F84304460D46FE
:1036100016461F464FF0000994F83A00202860D162
:1036200005B116B90120BDE8F88300BF94F8380051
:10363000012801D10220F6E7012084F8380000BFFC
:103640000020E063222084F83A00FEF7DFFC814688
:10365000A685E68539E0E08D401EE085A068B0F5DE
:10366000805F1BD14B46002220212046009701F0AD
:1036700081F808B10320D6E7A846206938B9206848
:103680004068C0F30800A8F80000AD1C1DE02068E9
:103690004068C0B2A8F800006D1C16E04B4600223E
:1036A00020212046009701F065F808B10320BAE711
:1036B000206920B92068406805F8010B05E0206802
:1036C000406800F07F0005F8010BE08D0028C2D1B2
:1036D000202084F83A0000BF002084F8380000BFA2
:1036E000A1E702209FE72DE9F84304460D46164660
:1036F0001F464FF0000994F8390020285CD105B12D
:1037000016B90120BDE8F88300BF94F838000128FD
:1037100001D10220F6E7012084F8380000BF002024
:10372000E063212084F83900FEF770FC8146A6840E
:10373000E6842BE0E08C401EE084A068B0F5805F5A
:1037400016D14B46002280212046009701F012F846
:1037500008B10320D6E7A846B8F80000C0F3080077
:1037600021684860206908B9AD1C0FE06D1C0DE0B0
:103770004B46002280212046009700F0FBFF08B155
:103780000320BFE715F8010B21684860E08C002892
:10379000D0D14B46002240212046009700F0EAFF9E
:1037A00008B10320AEE7202084F8390000BF0020D4
:1037B00084F8380000BFA5E70220A3E700BFFEE7BA
:1037C000014608684069C0F38020B0B16FF48060A2
:1037D0000A68506100200863202081F83D00002025
:1037E00081F83E00086C40F00400086400BF00202F
:1037F00081F83C0000BF012070470020FCE700007A
:103800002DE9F84304460F4615469946DDE908863A
:103810002068006840F480602168086020680068C3
:1038200040F4807021680860434600224FF0011187
:103830002046009600F014F910B10120BDE8F8838D
:1038400007F0FE00216808613346424639492046A8
:1038500000F04DF908B10120F0E700BF0020009012
:1038600020684069009020688069009000BF00BF18
:1038700032464146204600F0DCF950B1206C042865
:1038800005D12068006840F40070216808600120BC
:10389000D4E7B9F1010F03D1E8B22168086117E05C
:1038A000C5F307202168086132464146204600F0F2
:1038B000C0F950B1206C042805D12068006840F49C
:1038C0000070216808600120B8E7E8B2216808614B
:1038D00032464146204600F0ACF950B1206C042835
:1038E00005D12068006840F400702168086001205C
:1038F000A4E72068006840F48070216808604346AF
:1039000000224FF001112046009600F0A9F808B1FE
:10391000012093E7F8B240F00100216808613346C6
:1039200042460449204600F0E2F808B1012085E74C
:10393000002083E7020001002DE9F8430446884691
:1039400015469946DDE908672068006840F48070F4
:1039500021680860334600224FF00111204600978D
:1039600000F07EF810B10120BDE8F88308F0FE00F9
:10397000216808613B4632462149204600F0B7F8ED
:1039800008B10120F0E700BF0020009020684069E6
:10399000009020688069009000BF00BF3A46314621
:1039A000204600F046F950B1206C042805D120686B
:1039B000006840F40070216808600120D4E7B9F184
:1039C000010F03D1E8B22168086117E0C5F30720B1
:1039D000216808613A463146204600F02AF950B184
:1039E000206C042805D12068006840F4007021682C
:1039F00008600120B8E7E8B2216808610020B3E759
:103A00000200010070B504460D46164620E020462F
:103A1000FFF7D6FE08B1012070BD681CC0B1FEF7EB
:103A2000F5FA801BA84200D895B900202063202019
:103A300084F83D00002084F83E00206C40F0200017
:103A4000206400BF002084F83C0000BF0120E3E7B1
:103A500020684069C0F380000028D8D00020DBE750
:103A60002DE9F04704460D4616461F46DDF820A016
:103A7000FEF7CCFA8046C1461CE0FEF7C7FA814645
:103A8000A9EB0800B0F5FA6F00D89FB900202063B9
:103A9000202084F83D00002084F83E00206C40F097
:103AA0002000206400BF002084F83C0000BF0120FB
:103AB000BDE8F087C5F3074001280AD120684069B6
:103AC000A9B20840A9B2884201D101200BE0002030
:103AD00009E020688069A9B20840A9B2884201D1F2
:103AE000012000E00020B042C7D00020E0E72DE92F
:103AF000F04104460D4616461F463DE020684069E9
:103B0000C0F38020E8B12068006840F400702168AC
:103B100008606FF4806021684861002020632020E5
:103B200084F83D00002084F83E00206C40F0040042
:103B3000206400BF002084F83C0000BF0120BDE8E5
:103B4000F081701CC0B1FEF761FAC01BB04200D812
:103B500096B900202063202084F83D00002084F8DE
:103B60003E00206C40F02000206400BF002084F85C
:103B70003C0000BF0120E2E7C5F3074001280AD15D
:103B800020684069A9B20840A9B2884201D1012049
:103B90000BE0002009E020688069A9B20840A9B2C2
:103BA000884201D1012000E000200028A6D000209A
:103BB000C5E770B504460D46164632E020684069F8
:103BC000C0F30010A0B16FF0100021684861002020
:103BD0002063202084F83D00002084F83E00206C03
:103BE000206400BF002084F83C0000BF012070BDAD
:103BF000FEF70CFA801BA84200D895B9002020637C
:103C0000202084F83D00002084F83E00206C40F025
:103C10002000206400BF002084F83C0000BF012089
:103C2000E5E720684069C0F380100028C6D0002076
:103C3000DDE770B504460D46164620E02046FFF746
:103C4000BFFD08B1012070BD681CC0B1FEF7DEF9F0
:103C5000801BA84200D895B900202063202084F85A
:103C60003D00002084F83E00206C40F020002064DD
:103C700000BF002084F83C0000BF0120E3E720687B
:103C80004069C0F3C0100028D8D00020DBE7000056
:103C90000EB5002000900190029017481749086067
:103CA00000204860002115488160C16001614161C8
:103CB0008161C161016280F82410012181620021CB
:103CC00080F82C10102141630021816380F83C10A2
:103CD000FDF7D6FE08B1FDF7B5FC092000900120E4
:103CE00001900020029069460448FDF7DDFD08B10F
:103CF000FDF7A8FC0EBD0000002401404C0100208F
:103D000000B587B0142102A8FCF739FB00BF4C486E
:103D1000006840F004004A4908600846006800F066
:103D20000400019000BF00BF00BF0846006840F0DB
:103D3000200008600846006800F02000019000BFE5
:103D400000BF00BF0846006840F001000860084658
:103D5000006800F00100019000BF00BF00BF0846EE
:103D6000006840F0020008600846006800F00200A9
:103D7000019000BF00BF00224FF400513148FEF710
:103D80003FF9012291032F48FEF73AF90122302131
:103D90002D48FEF735F900224FF4C8512A48FEF7A6
:103DA0002FF94FF40050029001200390049000205E
:103DB000059002A92348FEF73BF84FF4804002909B
:103DC00001200390002004900320059002A91D48C3
:103DD000FEF72EF8012002901C4803900220049068
:103DE00002A91948FEF724F8022002901748039010
:103DF0000120049002A91448FEF71AF8302002901E
:103E00000120039004900220059002A90E48FEF7BD
:103E10000FF84FF4C8500290012003900020049046
:103E20000320059002A90848FEF702F80022114677
:103E30000620FEF7F5FC0620FEF7E2FC07B000BD09
:103E40001C3802400008024000000240000011102F
:103E500010B50B480B4908600B4848600021094821
:103E60008160C1604FF48041016100214161816145
:103E7000C1610162FEF7EEF808B1FDF7E3FB10BD8A
:103E800000540040F0070020A08601001CB500206F
:103E9000009001900E480F490860032048600021FF
:103EA0000C48816040F69F71C16000214161FFF7BD
:103EB000A9F908B1FDF7C6FB002000900190694602
:103EC0000448FFF775F908B1FDF7BCFB1CBD000005
:103ED000001000404408002010B50B480B49086052
:103EE0004FF416504860002108488160C1600161AC
:103EF0000C21416100218161C161FFF7A0FA08B185
:103F0000FDF7A0FB10BD0000003801408008002034
:103F100010B50B480B4908604FF41650486000215B
:103F200008488160C16001610C214161002181610B
:103F3000C161FFF784FA08B1FDF784FB10BD0000F2
:103F400000440040C008002010B50B480B49086031
:103F50004FF416504860002108488160C16001613B
:103F60000C21416100218161C161FFF768FA08B14C
:103F7000FDF768FB10BD000000480040000900206C
:103F800000BFFEE758E04FF6FF712C48006801F0D3
:103F90004BFF2B480068401C294908600846006810
:103FA000052809D14FF6FF712648006801F03CFF53
:103FB0002548006801F02CFF2048006801F028FF28
:103FC0004FF6FF712048006801F02EFF1E48006880
:103FD00001F01EFF4FF0FF311C48006801F024FF84
:103FE00002F0B4FF1948006801F012FF4FF6FF71AC
:103FF0001248006801F018FF11480068401E10497F
:1040000008600846006848B94FF6FF710E4800681E
:1040100001F00AFF0B48006801F0FAFE074800684B
:1040200001F0F6FE4FF6FF710648006801F0FCFE55
:104030000448006801F0ECFEA5E70000380000200D
:10404000440000202C000020200000205800002008
:10405000704700005AE04FF6FF712D48006801F0EC
:10406000E3FE2C480068401C2A49086008460068A6
:10407000052809D14FF6FF712748006801F0D4FEEA
:104080002648006801F0C4FE2148006801F0C0FE27
:104090004FF6FF712148006801F0C6FE1F48006816
:1040A00001F0B6FE4FF0FF311D48006801F0BCFE84
:1040B00003F058F901F04EFD1948006801F0A8FE20
:1040C0004FF6FF711248006801F0AEFE114800681B
:1040D000401E104908600846006848B94FF6FF7155
:1040E0000E48006801F0A0FE0B48006801F090FE49
:1040F0000748006801F08CFE4FF6FF710648006823
:1041000001F092FE0448006801F082FEA3E700007F
:1041100038000020440000202C0000202000002057
:104120005800002081E04FF0FF314048006801F066
:104130007BFE00F08BF801F013FFD8B13C484079CA
:104140003B49097940EA01203A49096888603848C2
:10415000C0793749897940EA012036490968086001
:104160003348407A3249097A40EA012031490968E6
:10417000486009E030482F49096888602D4909687E
:1041800008602C49096848602848006801F040FE32
:104190004FF6FF712948006801F046FE2848006884
:1041A000401C2749086008460068052809D14FF6D9
:1041B000FF712448006801F037FE2348006801F0D1
:1041C00027FE1E48006801F023FE4FF6FF711E48CF
:1041D000006801F029FE1C48006801F019FE4FF646
:1041E000FF711648006801F01FFE15480068401E68
:1041F000134908600846006848B94FF6FF71124835
:10420000006801F011FE0F48006801F001FE0B4844
:10421000006801F0FDFD4FF6FF710A48006801F0EB
:1042200003FE0848006801F0F3FD7CE74C00002025
:1042300040090020040000209F8601003800002073
:10424000440000202C0000202000002010B5012296
:1042500020210448FDF7D4FE012210210148FDF77A
:10426000CFFE10BD0000024018B5034600222548CD
:10427000006800F0F00050BB22481C30006800F0DD
:10428000805020B12048006800F4C05118E000BF01
:104290001C481C30006840F080501A4C1C342060D0
:1042A0002046006800F08050009000BF00BF164814
:1042B000006800F4C0512046006820F08050206063
:1042C000B1F5C05F03D1B3F5404F00D1012200BF6B
:1042D000012A05D10D48006840F004000B4C206015
:1042E0000A48006820F001001043084C206000BF1D
:1042F0002046006800F00100904201D0012018BD66
:104300000020FCE70838024000700040003C0240FA
:1043100000B593B0342106A8FCF731F8142101A8A8
:10432000FCF72DF81348006820F4C05040F40060FA
:1043300010490860022006900120099010200A9080
:1043400000200F9006A8FEF731FC08B1FDF77AF9BE
:104350000F2001900120029000200390049005900E
:10436000002101A8FEF7AEFA08B1FDF76BF913B012
:1043700000BD0000007000401448006840F48070E8
:1043800012490860114808300068114908400F4977
:10439000083108600D4800680E4908400B49086064
:1043A0000846006820F4802008600848083000684B
:1043B00020F47D000549083108600020091D0860CF
:1043C0004FF0006004490860704700000038024068
:1043D0000CC0FF88FEFFFEEE08ED00E010B50248BD
:1043E000FEF762FF10BD00004408002010B502680F
:1043F000B0F1804F05D0164B984202D0154B984231
:1044000003D122F070024B681A43B0F1804F0ED0F6
:104410000F4B98420BD00F4B984208D00E4B98424E
:1044200005D00E4B984202D00D4B984203D122F496
:104430004072CB681A4322F080030C6943EA0402FD
:1044400002608B68C3620B6883620123436110BD05
:10445000000400400008004000080140000C01403A
:104460000010014070B504462168096921F44051EB
:10447000E2681143226811612269A16811436269EF
:104480001143E26941EA02052168C96849F20C62F8
:10449000914329432268D1602168496921F4407120
:1044A000A269114322685161E169B1F5004F7DD1E4
:1044B000AF4A2168914255D1FEF72AFB00EBC001BB
:1044C00001EB001162685200B1FBF2F16422B1FB12
:1044D000F2F10A0100EBC00101EB001163685B001F
:1044E000B1FBF3F100EBC00303EB00136668760049
:1044F000B3FBF6F36426B3FBF6F303EBC30606EB5C
:104500000313A1EB8301322303EBC1016423B1FB4D
:10451000F3F101F0F80102EB410200EBC00101EB05
:10452000001163685B00B1FBF3F100EBC00303EB28
:10453000001366687600B3FBF6F36426B3FBF6F36C
:1045400003EBC30606EB0313A1EB8301322303EB5A
:10455000C1016423B1FBF3F101F0070111442268AA
:10456000916004E1FEF7C4FA00EBC00101EB001119
:1045700062685200B1FBF2F16422B1FBF2F10A0170
:1045800000EBC00101EB001163685B00B1FBF3F1CC
:1045900000EBC00303EB001366687600B3FBF6F391
:1045A0006426B3FBF6F303EBC30600E032E006EB50
:1045B0000313A1EB8301322303EBC1016423B1FB9D
:1045C000F3F101F0F80102EB410200EBC00101EB55
:1045D000001163685B00B1FBF3F100EBC00303EB78
:1045E000001366687600B3FBF6F36426B3FBF6F3BC
:1045F00003EBC30606EB0313A1EB8301322303EBAA
:10460000C1016423B1FBF3F101F0070111442268F9
:104610009160ACE0564A2168914254D1FEF778FA95
:1046200000EBC00101EB001162689200B1FBF2F1F6
:1046300000EBC00202EB001263689B00B2FBF3F2D6
:104640006423B2FBF3F202EBC20303EB0212A1EB11
:104650008201322202EB01116422B1FBF2F101F07E
:10466000F00200EBC00101EB001163689B00B1FB9D
:10467000F3F16423B1FBF3F102EB011200EBC00193
:1046800001EB001163689B00B1FBF3F100EBC00389
:1046900003EB00136668B600B3FBF6F36426B3FBC6
:1046A000F6F303EBC30606EB0313A1EB83013223FE
:1046B00003EB01116423B1FBF3F101F00F0111448D
:1046C0002268916053E0FEF713FA00EBC00101EBA2
:1046D000001162689200B1FBF2F100EBC00202EB44
:1046E000001263689B00B2FBF3F26423B2FBF3F2A7
:1046F00002EBC20303EB0212A1EB8201322202EBB6
:1047000001116422B1FBF2F101F0F00200EBC001F3
:1047100001EB001163689B00B1FBF3F16423B1FB73
:10472000F3F102EB011200EBC00101EB0011636831
:104730009B00B1FBF3F100EBC00303EB00136668D1
:10474000B600B3FBF6F36426B3FBF6F303EBC30644
:1047500006EB0313A1EB8301322303EB0111642366
:10476000B1FBF3F101F00F0111442268916070BDBB
:10477000003801402DE9F04104460D4617469846A1
:10478000069E21E0701CF8B12EB1FDF73FFCA0EBB6
:104790000800B04218D92068C06820F4D0702168A1
:1047A000C8602068406920F001002168486120202D
:1047B00084F8390084F83A0000BF002084F83800FB
:1047C00000BF0320BDE8F081206800682840A842AF
:1047D00001D1012000E00020B842D3D00020F1E751
:1047E00000BFFEE70FB41CB50246002007AC00294D
:1047F0000BD0491ECDE90021054B6A46214606989B
:1048000000F040F9009A002111701CBC5DF814FB07
:10481000B35100080FB4084B10B504A902AA0398BD
:1048200000F030F9044602A9002000F0CDFC20463B
:1048300010BC5DF814FB0000C95100080248006874
:10484000C0F30220704700000CED00E010B5002816
:1048500004DB0A07130E054A135406E00A07140E78
:10486000034A00F00F031B1FD45410BD00E400E006
:1048700018ED00E00022134610461146FCF76BB914
:1048800002E008C8121F08C1002AFAD17047704719
:10489000002001E001C1121F002AFBD17047000077
:1048A00001490860704700001C0100202DE9FF5FEE
:1048B00082B00021DDE90430020DDDF840B0034391
:1048C00018D044F61050A2F2FF324243151411984A
:1048D00001281FD0A5EB0B00401C5FEA000A4FF037
:1048E00000064E4FDFF83891B046504615D5CAF154
:1048F000000413E0119801244AA3012801D16FEAB2
:104900000B010298119AC0E90031C0E9024206B0D9
:10491000BDE8F09FCBF10000DFE704460021404AEC
:10492000491842EB0450CDE9001012E0E00707D02F
:1049300032463B4640464946FCF704FB80468946E2
:1049400032463B4610461946FCF7FCFA06460F462F
:104950006410002CEAD1DDE90401DDE90023BAF19D
:10496000000F06DAFCF7EEFA42464B46FCF7EAFA8D
:1049700005E0FCF7F0F842464B46FCF7ECF804463D
:104980000E460022284BFCF7B7FB03D84FF0FF3050
:10499000014607E00022254B20463146FCF734F85B
:1049A000FCF791FB102409E0002C0ADB0A2200230B
:1049B000FBF75CFC039B30321A55641E50EA01027F
:1049C000F2D1641C039AC4F111031444119A012A10
:1049D00003D0012208430DD10AE0084304D000208F
:1049E0004FF0110B119072E7A3EB0B056D1E0DE05C
:1049F0005B4504DD4FF0000205F1010504E003DA38
:104A00004FF00002A5F10105002AECD0029811999F
:104A1000C0E90231C0E9004579E700000000144018
:104A20000000F03F300000000000F0430000E03FD5
:104A300010B5002A06DA22F00042D21D22F0070348
:104A4000102203E0D21C22F003030C2213B19C18A5
:104A50008C4201D9012010BD024401448360C0E9A9
:104A60000021C91AD018884202D810600246F9E71E
:104A70000020106010BD30380A2801D20120704794
:104A8000002070472DE9FF4F95B09B4689460646AA
:104A900000250FE2252877D100242746F84A012176
:104AA000059400E0044316F8013F203B01FA03F0AF
:104AB0001042F7D130782A2811D06FF02F033078C8
:104AC000A0F13002092A16D8059A44F0020402EB3C
:104AD000820203EB42021044761C0590EFE759F87E
:104AE000042B0592002A03DA504244F40054059046
:104AF00044F00204761C30782E2816D116F8010FE7
:104B000044F004042A280DD06FF02F023078A0F171
:104B10003003092B09D807EB870302EB4303C718BF
:104B2000761CF3E759F8047B761C30786C280FD09C
:104B300006DC4C2817D068280DD06A2814D104E070
:104B4000742810D07A280FD10DE044F400140AE044
:104B500044F4801401E044F440147278824202D19B
:104B600004F58014761C761C307866280BD013DC94
:104B7000582877D009DC002875D04528F6D046287B
:104B8000F4D047281AD19DE118E0632835D0642875
:104B900079D0652812D195E1702873D008DC672898
:104BA000F1D069286FD06E280DD06F2806D1B5E0FE
:104BB00073282CD0752875D0782874D05A46179948
:104BC00090476D1C75E1C4F30250022809D00328F8
:104BD0000DD0D9F8001004280DD00D6009F104099A
:104BE00067E1D9F80010EA17C1E90052F6E7D9F8F1
:104BF00000100D80F2E70D70F0E719F8041B8DF836
:104C0000001000208DF80100EA46012003E059F869
:104C100004AB4FF0FF3061074FF0000102D40DE00C
:104C200008F101018846B9420FDA8045F8DB1AF82D
:104C300008100029F4D108E008F1010188468142FA
:104C4000FADB1AF808100029F6D105985B46A0EBAC
:104C5000080721463846179A00F094FA284400EBDA
:104C6000080507E04DE029E10DE01AF8010B5A466E
:104C700017999047B8F10108F7D25B4621463846AC
:104C8000179A13E142E00A220092C4F302524FF055
:104C9000000A022A08D059F804CB032A4FEAEC7123
:104CA0000AD00DE029E02AE009F1070121F007020E
:104CB000F2E802C1914609E00FFA8CFC4FEAEC7170
:104CC000042A03D14FFA8CFC4FEAEC71002907DA71
:104CD0000A460021DCF1000C61EB02012D2202E00A
:104CE000220504D52B228DF80420012203E0E207DF
:104CF00001D02022F7E7904659E00A2102E0102275
:104D00000DE010214FF0000A00910BE010224FF04F
:104D1000000A44F004040827009203E008224FF040
:104D2000000A0092C4F30252022A05D059F804CBBB
:104D30000021032A08D009E009F1070121F0070248
:104D4000F2E802C1914605E01FFA8CFC042A01D169
:104D50000CF0FF0C4FF00008220728D5702806D071
:104D6000009B83F0100353EA0A0305D00EE04022B3
:104D70008DF80420012208E05CEA010206D030220E
:104D80008DF804208DF8050002229046009B83F0E8
:104D9000080353EA0A030AD15CEA010201D162075F
:104DA00005D530228DF804204FF001087F1E5828C9
:104DB00004D034A003900EA802900DE036A0F9E7CD
:104DC00053466046009AFBF751FA84460398825C8A
:104DD0000298401E029002705CEA0100F0D1029835
:104DE00006A9081A00F1200A600702D524F48034CD
:104DF00000E00127574502DDA7EB0A0000E0002094
:104E000000EB0A01009005984144401A0590E00328
:104E100006D45B462146179A059800F0B3F905447D
:104E2000002706E001A85A46C05D179990476D1CFF
:104E30007F1C4745F6DBE0030CD55B462146179AFD
:104E4000059800F09FF9054404E030205A46179970
:104E500090476D1C0099481E00900029F5DC08E081
:104E6000029802995A460078491C02911799904776
:104E70006D1CBAF10001AAF1010AF1DC65E1000044
:104E80000928010030313233343536373839616220
:104E900063646566000000003031323334353637E4
:104EA00038394142434445460000000000F058F9BB
:104EB0000544761C307800287FF4ECAD19B0284604
:104EC000BDE8F08F620700D4062709F1070222F03F
:104ED000070CFCE80223E14603F000485FEA080CF7
:104EE00002D00FF2702C0DE05FEA045C02D50FF2E5
:104EF000682C07E05FEAC47C02D00FF2602C01E06E
:104F0000AFF2700C4FF0FF3823F00043CDF850C0E3
:104F100065280CD006DC452809D046281DD0472836
:104F20003DD13DE0662818D067287ED138E00021C9
:104F3000112F01DB112000E0781CCDE9000106A94A
:104F40000EA8FFF7B3FCDDE90F010E9A03910021D3
:104F5000009207F1010A04914DE04FF000400097E4
:104F6000CDE9011006A90EA8FFF7A0FCDDE90F02AC
:104F700003920E9B11990022DDF80CA0009304927D
:104F800011B9791C00EB010AB7EB0A0004D4C0F197
:104F9000FF3007F1010A0490AAEB0700019044E0FA
:104FA000012F00DA01270021112F01DD112000E07F
:104FB0003846CDE9000106A90EA8FFF777FCDDE928
:104FC0000F010E9A0391002104910092BA46210725
:104FD0000CD40399514500DA8A46BAF1010F05DD78
:104FE000009AAAF10101515C302908D0B84202DAD6
:104FF00010F1040F06DA0121CDE9011015E0AAF144
:105000000101E9E7002805DC049901440491AAEBB9
:10501000000102E0411C514500DD8A460499401A16
:10502000401C01904FF000400290200704D40198EA
:10503000504501DBCDF8048000208DF84F00029828
:105040000DF14F07B0F1004F25D02B200E900298A4
:105050004FF0020800280CDA404202902D200E90FA
:1050600007E00A210298FBF74FFE3031029007F863
:10507000011DB8F10001A8F10108F2DC0298002836
:10508000EFD1791E0E980870307800F0200040F0C3
:10509000450007F8020D12A8C01B00F1070814987C
:1050A000007800B1012000EB0A01019801EBE071EA
:1050B00005984144401A401E0590E00306D45B4623
:1050C0002146179A059800F05DF805441498007879
:1050D00018B15A46179990476D1CE00324D55B46DA
:1050E0002146179A059800F04DF805441CE00498F5
:1050F000002807DBDDE90301884203DD0098405CFE
:10510000179901E0179930205A469047049805F105
:105110000105401C04900198401E019004D12E20EE
:105120005A46179990476D1CBAF10001AAF1010A7D
:10513000DDDC05E017F8010B5A46179990476D1C06
:10514000B8F10001A8F10108F4DC5B462146179A8A
:105150000598ABE62D0000002B00000020000000A9
:105160002DE9F041044600251E461746880404D464
:1051700005E039462020B0476D1C641EF9D528464D
:10518000BDE8F0812DE9F041044600251E46904619
:10519000C80301D5302700E02027880404D505E0A6
:1051A00041463846B0476D1C641EF9D52846BDE817
:1051B000F0814A68002A06D00A68531C0B60107000
:1051C0004868401E486070470A68531C0B601070A6
:1051D00070472DE9F84F05460C46FCF717FF0646C9
:1051E0003746A88C762805D0A88C772802D00020D6
:1051F000BDE8F88F012305F13202D021284600F0E6
:10520000ADFF08B10020F3E795F83200582805D02B
:1052100095F83200602801D00020E9E7B622E021AD
:10522000284602F04DFB08B10020E1E710E0FCF752
:10523000EDFE074601236A46F321284600F08EFF63
:1052400028B99DF8000000F0010000B905E000BF9A
:10525000B81B40F6B8318842E9DB00BFB81B40F606
:10526000B831884201DB0020C2E7284600F01CFF6D
:1052700008B90020BCE795F83200602805D128461F
:1052800000F088FF08B90020B2E76079400161783A
:1052900040EA810000F0FF084246F521284602F06E
:1052A0000FFB08B10020A3E72078012801D10020DE
:1052B0002070E0784001A17840EA8100217808431D
:1052C00000F0FF0995F8320060280AD194F804A094
:1052D0005246F221284602F0F3FA08B1002087E78F
:1052E00000BF4A46F421284602F0EAFA08B100203D
:1052F0007EE701207CE7032101700021417003213A
:105300008170C1700171417170472DE9FE4F0446F3
:10531000884691461D4694F83200602803D00DB1AE
:105320000020286000250DB1082000E00620009034
:105330000098C3B201AAF721204600F00FFF10B178
:105340000020BDE8FE8F9DF8040000039DF80510C5
:1053500040EA01109DF8061040EA211A9DF8070066
:1053600000039DF8081040EA01109DF8091040EA7A
:10537000211600BFF2102388A2EB4302B4F90230D9
:105380005A43D0122288C2EB261252431213B4F9A8
:1053900004305A439113471807EB870280321212E8
:1053A000C8F800203A465146204600F084F8C9F873
:1053B000000065B19DF80B009DF80A1040EA012B32
:1053C0003A465946204600F039F8286000BF0120CF
:1053D000B7E700002DE9FE4307460D4616461C467A
:1053E0000CB1684600E00020034601AA02A9384635
:1053F000FFF78BFFE8B10298FBF71CFC80460E49D3
:10540000FBF7C4FA28600198FBF71DFC80464FF0BB
:105410008741FBF7BBFA306044B10098FBF713FCFF
:1054200080464FF08941FBF7B1FA20600120BDE8CA
:10543000FE830020FBE700000000C842F0B50346F1
:105440000C46A2F59631A003DD8BA0EB0550B3F915
:10545000205005FB110000F58040C51393F9220090
:10546000484380121E7F4E434FF4004707EBE62669
:105470007043BE0106EBA020B3F91A60704300F53B
:105480000050801305FB00F1C8134043C0111D7E7E
:105490006843A1EB2011002901DA002000E0084652
:1054A0000146B1F1C85F02DD4FF0C85000E0084688
:1054B00001460813F0BD2DE9F74F82B082460498EB
:1054C000C1174FF4FA33C41A61F10005A4FB04C0FC
:1054D00005FB040004FB0501BAF91000C217ACFB80
:1054E000003801FB00800CFB0200CDE90030BAF966
:1054F0000E00C117A0FB042301FB043100FB0510C3
:10550000400440EAD2305304DDE9001259185041FA
:10551000CDE90010BAF90C00C200DDE90001001C61
:105520004A41CDE90002A4FB043005FB040004FB62
:105530000501BAF90A004FEAE07CA3FB002801FB51
:10554000008003FB0C00110A41EA00610212BAF963
:105550000800C317A446A0FB0C9B03FB04B300FB8D
:105560000530000340EA19504FEA09338C461CEB22
:10557000030442EB0005221C45F5004CBAF8061066
:105580000020A2FB01830CFB013102FB00114C1037
:10559000CD17002184EA01006940084302D105B01B
:1055A000BDE8F08F0398C0F58010C7170646FA07CC
:1055B00042EA5602F307DDE90001181A62EB010224
:1055C00040F635414FF0000CA0FB018B02FB01B10E
:1055D00000FB0C1122462B464046FAF778FE0646A1
:1055E0000F46BAF91600C217710B41EAC74C7B137C
:1055F000A0FB0C1802FB0C8200FB0322700B40EA9C
:10560000C74C7B13A1FB0C0802FB0C8201FB03219E
:10561000400E40EAC1144D16BAF91400C117A0FBA0
:10562000062301FB063100FB0711D00C40EA413094
:10563000C914CDE90001331947EB0502DDE900107B
:1056400059184241080A40EA0260BAF912100901E9
:1056500046183046A3E700002DE9F14F00BF00BF18
:105660000098FBF722FB04460022134B00F05AF887
:105670008046894611490098FBF788F90546FBF7F3
:10568000E7FA0446FBF7D6FA009000220C4B40469E
:105690004946FBF760FA04460D460098FBF705FB08
:1056A000064622462B46FBF7AFF982468B4650460C
:1056B0005946BDE8F88F0000000059400000C8427C
:1056C00000004E4008480068C0010BD5074800683C
:1056D000C00707D0054880380068002802DA04496E
:1056E0000120087070470000FCED00E0800E00E033
:1056F000100100204FF06042D36F002BFCD0036BF1
:10570000D367D36F002BFCD0C07840EA0120A2F809
:105710007C0070474FF06041CA6F002AFCD081F8CE
:105720007C00704770B514461D460E46002814BF15
:1057300001210021314321F00041C1F17F6101F1DC
:10574000E041C90F16D1002C14BF012100212943CB
:1057500021F00041C1F17F6101F1E041C90F09D1A0
:105760001449B1EB460F08BF00281CD0690008BFE0
:10577000002C18D03146FBF757FC024640F2FF7070
:1057800030EA11500DD0F017B0EBE17F09D0084698
:1057900065F31E0084460B4620466146FBF7D8F9A8
:1057A0000246104670BD0120FFF77AF8BDE8704050
:1057B000FFF760B80000E0FF0EB5802200B109B12C
:1057C00010460AE001780129FAD101A900F034F865
:1057D000042801D0002000E01020DDE9011203B010
:1057E00000BD70B50D46040003D012B92078012821
:1057F00001D0802070BD204600F0E4FE28B129468B
:10580000204600F044F8002070BD812070BD10B526
:1058100000F056FE10B10178022901D0802010BDA1
:105820004188A1F57F42FF3A03D000F037F800200D
:1058300010BD812010BD000010B5044680890028ED
:1058400024D0608904EB800000690860606840B182
:105850006078022805D10021204601F007F800F009
:10586000F5FF04F10C0000BFD0E85F1F491E8AB2AB
:10587000C0E8512F0029F7D16089401C80B26081B7
:10588000E189884201D100206081042010BD10B55B
:1058900000F0ECFFBDE8104000F0D8BF10B50021CB
:1058A00000F0E4FFBDE8104000F0D0BF10B5FCF7F9
:1058B0003DFFFEF72DFDFEF723FAFEF7C9FAFEF7CE
:1058C0000BFBFEF725FBFEF7E1FAFEF73DFBFEF7CB
:1058D000DFF900F00DFA0021284800F083FA28498A
:1058E00008600121274800F07DFA2749086001215E
:1058F000264800F077FA264908600121254800F083
:1059000071FA254908600121244800F06BFA244906
:1059100008600121234800F093FA2349086002211E
:10592000224800F08DFA224908600321214800F046
:1059300087FA214908600421204800F081FA2049B3
:10594000086005211F4800F07BFA1F4908601F48C6
:10595000FDF794FC012251031D48FCF751FB00F0B8
:10596000D9F91C4800F028FA1B490860084600686D
:1059700000F012FA19490860002010BD04790008EF
:1059800020000020087900082C0000200C79000875
:1059900038000020107900084C000020147900081D
:1059A00058000020387900080C0000201879000801
:1059B000100000202879000808000020587900080D
:1059C00014000020487900081C0000204408002032
:1059D00000080240F87800080000002004000020C1
:1059E00010B500224FF480410148FCF709FB10BDBF
:1059F0000008024010B50446092C71D2DFE804F01B
:105A00009205182A3C4D5F71820000224FF48051AC
:105A10004F48FCF7F5FA00224FF400614C48FCF7C0
:105A2000EFFA00224FF480714948FCF7E9FA8CE064
:105A300000224FF480514648FCF7E2FA00224FF46E
:105A400000614348FCF7DCFA012211024048FCF7F0
:105A5000D7FA7AE000224FF480513D48FCF7D0FAA3
:105A60000122D1023A48FCF7CBFA00224FF48071B0
:105A70003748FCF7C5FA68E000224FF480513448FB
:105A8000FCF7BEFA0122D1023148FCF7B9FA012233
:105A900011022F48FCF7B4FA57E0012211032C48F9
:105AA000FCF7AEFA00224FF400612948FCF7A8FA8F
:105AB00000224FF480712648FCF7A2FA45E001224B
:105AC00011032348FCF79CFA00224FF400612048A0
:105AD000FCF796FA012211021D48FCF791FA34E016
